:1000000012C024C023C022C021C020C01FC01EC0F7
:100010001DC01CC01BC01AC019C018C017C016C014
:1000200015C014C013C011241FBECFE5D4E0DEBF3D
:10003000CDBF10E0A0E6B0E0ECE4F2E002C0059035
:100040000D92A63AB107D9F706D0FEC0D9CF86B334
:10005000817090E00895CF93DF93CDB7DEB76897B6
:100060000FB6F894DEBF0FBECDBF83EA90E0988F45
:100070008F8BB89A8AB188618AB986E880BD80B5CD
:100080008F7780BD10BC83E389B91FBC8CE590E0FD
:1000900097BD86BD82E08FBD89E18EBD87B3866046
:1000A00087BB8FB5806A8FBD87E886B92FEF84E361
:1000B0009CE0215080409040E1F700C000008E019C
:1000C0000F5F1F4F4E01ADE08A0E911C0F2EFDE019
:1000D0004F2EFAE05F2E612CF02DC02ED12E212C58
:1000E000712C0F2EFCE0AF2EF02D6894BB24B3F8DA
:1000F0000F2EFEE9EF2EF0E0FF2EF02DE0E6F0E00F
:10010000AC2DBD2D8A2D01900D928A95E1F7F40159
:100110002B2D11922A95E9F7EF89F88D0190F08146
:10012000E02DCE01479609958130910599F08230F6
:100130009105E1F0892B31F5F80101900020E9F7F4
:1001400031978FE496E4A6E4B0E080839183A283A4
:10015000B38318C0F80101900020E9F731978FE4CC
:100160009EE4A0E080839183A2830CC0D8010D900F
:100170000020E9F711978AE0E4E7F0E001900D92A2
:100180008A95E1F7F80101900020E9F73197408264
:1001900051826282AC2DBD2D822D972D05C05D9BB5
:1001A000FECF2D912CB90196F80101900020E9F7BE
:1001B0003197E01BF10B8E179F0788F3D7014D9203
:1001C0005D926C92EEE7F0E05D9BFECF81918CB981
:1001D000EE15FF05C9F75F9BFECFE0E3F0E0FE8B75
:1001E000ED8B8CB18D8BCE01459609D0009719F01F
:1001F000019719F083CFC09874CFC09A72CFFC01D9
:1002000088279927E89421912032E9F3293010F0CA
:100210002E30C8F32B3239F02D3231F4689403C0FC
:100220000BD0820F911D219120532A30C8F31EF468
:10023000909581959F4F08957AE0979F902D879F85
:0C024000802D910D11240895F894FFCF3B
:10024C004C4544206973206E6F772000000000003D
:10025C0000000000756E646566696E6564000D0AC9
:10026C000D43206F206D206D2061206E20642020B6
:10027C002070206C20652061207320650A0D000021
:06028C0000000027000045
:00000001FF
